:100000000C9479030C9496030C9496030C94960329
:100010000C9496030C9496030C9496030C949603FC
:100020000C9496030C9496030C9475170C94B716C5
:100030000C94031A0C9496030C9496030C94960358
:100040000C9496030C9496030C9496030C949603CC
:100050000C9496030C94C2190C9496030C9496037A
:100060000C9496030C9496030C9496030C949603AC
:100070000C9496030C9496030C9496030C9496039C
:100080000C9496030C9496030C9496030C9496038C
:100090000C9496030C9496030C9496030C9496037C
:1000A0000C9496030C9496030C94960367066706CB
:1000B0009A069A06050723072D082D082E07A20782
:1000C000B307B307CA14F1149F16F1149F163D1518
:1000D00060159F16551665164B2150215A214E2149
:1000E000532158215621842287228A228D22902250
:1000F0009322962229002B00E000E100010000007D
:10010000B25D140004001D0001000100B35D1A007F
:1001100016001B00E1000251B45D08000700060054
:10012000E2000151C35C150009001900E300010061
:10013000B05D17000A0005000000E00BC45C310050
:100140000000350000000100010001000000230252
:100150000000010001001C000B0011000000010064
:10016000010018000D001000E200010001000C0069
:100170000E00360001002C002D0012000F00370089
:10018000010028002E001300330038000100010098
:100190002A0031003400E5000100000001002B01BD
:1001A000290001000100000001001E0220022F00B2
:1001B00001000100010034021F02300001000100B3
:1001C0000100220235022F0201000100010021027C
:1001D0002402300201000100010031025500260214
:1001E0000000010001002D020000270200000100B4
:1001F00001000100000001000000010001002700D3
:10020000500022000000010001001E0051002300E8
:100210000100010001001F00520024000100010044
:10022000010020004F002500010001000100210015
:1002300001002600010001004C0001000100010046
:1002400001000000000000000000000000000000AD
:1002500000003A003E0042000000000000003B00A9
:100260003F0043000000010000003C00400044004B
:100270000000000000003D004100450000000000BB
:10028000000000000000000000000000000000006E
:100290000000000000000000FD0000000000000061
:1002A00000000000FE00FB00EF0000000000000066
:1002B000FF00FA00EE000000000000000000F9005E
:1002C000ED0000000000F1000000FC00F000000064
:1002D0000000F2000000000000000000000000002C
:1002E00000000000000000000000000000047F3F4C
:1002F0001F643214643214783C1E1E140A05050172
:100300000980A101850319012AB700150126B7004C
:10031000950175108100C0050C0901A10185041922
:10032000012AA002150126A002950175108100C0C6
:1003300005010906A1018506050719E029E7150051
:1003400025019508750181020507190029EF15009F
:10035000250195F07501810205081901290595050A
:1003600075019102950175039101C005010902A172
:10037000010901A1000509190129081500250195A8
:1003800008750181020501093009311581257F9524
:10039000027508810609381581257F950175088148
:1003A00006050C0A38021581257F9501750881061E
:1003B000C0C00660FF0961A1010962150026FF00A7
:1003C0009520750881020963150026FF00952075A8
:1003D000089102C005010906A101050719E029E7F6
:1003E00015002501950875018102950175088101A7
:1003F0000507190029FF150026FF009506750881DD
:1004000000050819012905950575019102950175E9
:10041000039101C009027400040100A0FA0904005C
:100420000001030101000921110100012240000720
:10043000058103080001090401000203000000090E
:10044000211101000122220007058303200001077A
:100450000504032000010904020001030102000950
:10046000211101000122470007058203080001094C
:100470000403000103000000092111010001226DA5
:10048000000705850320000112010002000000089A
:1004900097327549010001020001220345007200F4
:1004A00067006F0044006F007800200045005A008C
:1004B00020005300680069006E00650000002803FA
:1004C0005A0053004100200054006500630068009A
:1004D0006E006F006C006F006700790020004C0018
:1004E0006100620073000000040309042223252632
:1004F00028292A2C2D2F3032333536383A3B3D3ED1
:100500004042434547494A4C4E5051535557595A1A
:100510005C5E6062646668696B6D6F717375777934
:100520007B7D7F81838587898A8C8E909294969833
:100530009A9C9E9FA1A3A5A7A8AAACAEAFB1B3B445
:10054000B6B8B9BBBCBEBFC1C2C3C5C6C7C9CACB9A
:10055000CCCDCED0D1D2D2D3D4D5D6D7D7D8D9D965
:10056000DADADBDBDBDCDCDCDCDCDDDDDDDDDCDCCE
:10057000DCDCDCDBDBDBDADAD9D9D8D7D7D6D5D4EB
:10058000D3D2D2D1D0CECDCCCBCAC9C7C6C5C3C2B7
:10059000C1BFBEBCBBB9B8B6B4B3B1AFAEACAAA80C
:1005A000A7A5A3A19F9E9C9A98969492908E8C8AC0
:1005B00089878583817F7D7B79777573716F6D6B9B
:1005C0006968666462605E5C5A5957555351504E73
:1005D0004C4A4947454342403E3D3B3A3836353325
:1005E00032302F2D2C2A2928262523220001010113
:1005F00001010101010102020202020202020203E0
:1006000003030303030303040404040404040505AF
:100610000505050606060606070707070708080872
:1006200008090909090A0A0A0B0B0B0C0C0C0D0D21
:100630000D0E0E0E0F0F0F101011111112121313B9
:100640001414151516161717181819191A1A1B1B32
:100650001C1D1D1E1E1F202021222223242425268E
:1006600026272829292A2B2C2D2D2E2F30313232C6
:10067000333435363738393A3B3C3D3E3F404142D2
:10068000434445464748494A4C4D4E4F50515354B8
:10069000555658595A5B5D5E5F616264656668696C
:1006A0006B6C6D6F7072737577787A7B7D7E8082EC
:1006B000838587888A8C8E8F91939596989A9C9E35
:1006C000A0A2A3A5A7A9ABADAFB1B3B5B7BABCBE45
:1006D000C0C2C4C6C9CBCDCFD1D4D6D8DBDDDFE212
:1006E000E4E7E9EBEEF0F3F5F8FAFDFFFFAA7F553A
:1006F000400011241FBECFEFDAE0DEBFCDBF11E016
:10070000A0E0B1E0E6E9F1E502C005900D92AE3956
:10071000B107D9F723E0AEE9B1E001C01D92A732DD
:10072000B207E1F70E948A0E0C94C9280C940000CD
:10073000A5E2B0E0EEE9F3E00C940426FC01808130
:10074000918123813481232B31F09F3F31F491E05B
:100750008F3F19F403C091E001C090E090FDBBC44D
:100760007F0185E0DE01919601900D928A95E1F777
:10077000D70112962C9189A19AA1222349F00E94B7
:100780000923182F682F89A19AA10E94792303C0F9
:100790000E944523182F69A17AA1812F0E94B408D5
:1007A0008C0190919602F7018281992309F44DC042
:1007B000811181C4E091A001E330A0F481E08E0FAB
:1007C0008093A001F0E0EE0FFF1FE55AFD4FD70127
:1007D0008D919C919183808382E08983CE010196E3
:1007E0000E94A918BFEFE3EDF0E3B150E040F04004
:1007F000E1F700C000008091A001833009F05BC4E4
:100800001092A001E1E6F2E0ABE5B2E087E692E00B
:10081000318111962C91119732132EC030812C9179
:1008200032132AC0329612968E179F0789F784E0FA
:10083000898381E0809397028EEF8A8310929602DB
:10084000CE0101960E94A91836C49091970299236F
:10085000C1F0882311F086E001C087E08983D701C9
:100860008C918A8311968C918B838EEF8C83CE0131
:1008700001960E94A91805C083E08983109297020F
:10088000DBCFD70112968C910F3ABDE51B07D1F54E
:10089000882309F477C09091270281E0890F87703F
:1008A000987F853020F4892B8093270202C0909393
:1008B0002702809127028770BFEF8B9FC001112410
:1008C000959587959595879599279093890080931D
:1008D000880090938B0080938A0090938D00809382
:1008E0008C0040912702509128026091290270915A
:1008F0002A028FE090E00E94D62680913A020E9460
:10090000352140C0023BEDE51E0799F028F4013B7C
:100910002DE5120751F036C0033B9DE51907B1F0F4
:10092000043BADE51A0709F12DC0882309F4C3C3C0
:1009300043C0882309F4BFC30E94131F81E00E94B3
:100940000F1F21E04FEF6FEF80E00CC0882309F408
:10095000B2C30E94131F81E00E940F1F21E04FEFDE
:100960006FEF89E40E94131EA6C3882309F4A3C372
:100970000E94131F81E00E940F1F21E04FEF6FEFD5
:100980008AE9F0CFF70182818111E4C08091680289
:1009900082720D3CBCE51B0709F4C2C020F1023D88
:1009A0002CE5120709F4C9C048F40F3C9CE519076F
:1009B00009F4BDC008F05CC081E012C0053DFCE553
:1009C0001F0709F4C0C008F060C0033D8CE518079C
:1009D00009F4B6C0043D9CE5190709F029C188E176
:1009E0000E940F1F68C3073CFCE51F0709F484C081
:1009F000D8F4043C9CE5190709F474C030F4033CB6
:100A0000BCE51B0709F44CC013C1053CECE51E070F
:100A100009F46DC0063CFCE51F0709F009C140EC74
:100A20005EE16AEC7EE180C00A3C2CE5120709F425
:100A30006DC078F4083CACE51A0709F462C0093CC3
:100A4000BCE51B0709F0F4C043EB5EE166EA7EE11A
:100A50006BC00B3CECE51E0709F45DC00C3CFCE5EB
:100A60001F0709F0E5C04AE35DE16CE47DE15CC08D
:100A7000003DBCE51B0709F45DC0013DECE51E0728
:100A800009F0D6C06EE089E060C0063DACE51A070B
:100A900009F45EC00F35BDE51B0709F40CC3C8C0DF
:100AA0008091E10280FF1BC08E7F8093E102609104
:100AB000E1027091E2028091E3029091E4020E94CF
:100AC000271D1092A102EFEFF0E722E0E150F04085
:100AD0002040E1F700C000000E94DD1AECC20E9435
:100AE000131FE9C24CE15FE166E27FE11DC046E20F
:100AF0005FE16CE17FE118C04AEC5EE160EC7EE111
:100B000013C046EA5EE163EB7EE10EC04CE85EE1B5
:100B100069E97EE109C049E95EE16CE87EE104C073
:100B20004CE45DE16AE37DE10E94C01AC4C265E065
:100B300082E00BC068E086E008C064E18FE005C099
:100B400067E185E102C062E289E10E94AD1AB3C2A9
:100B500083E246CF0C358DE5180709F464C060F4D4
:100B60000115ACE51A07A9F00F3DBCE51B0709F01C
:100B70005FC00E94670A4CC00E35EDE51E0709F400
:100B80004AC008F452C0093A2DE5120709F440C0E2
:100B90004FC0109268020E9416248FEF94E3ACE0DD
:100BA00081509040A040E1F700C00000F89481E03F
:100BB0008093E00080E28093D8001092C900EFE1BA
:100BC000FEE43197F1F700C000001DBA10926800F2
:100BD0001CBC10BE1FBA10927A0010926E001092C8
:100BE0006F0010927100109272001092C900109262
:100BF000BC0014B817B81AB81DB810BA1092BC00CF
:100C000015B818B81BB81EB811BA0C94003F53C2DF
:100C10000E941D2150C28091F20282FB882780F938
:100C200091E0892703C081E001C080E00E945C0B55
:100C3000D70112968C9112970D911C91882349F03F
:100C4000C8010E940923D82E682FC8010E94792369
:100C500004C0C8010E944523D82EB8018D2D0E94E2
:100C6000B4080E94CD08B82E192F982EF7010281E2
:100C7000A580A2949FE0A9228091F9018770B9F024
:100C80000023A9F0812F807F803421F080E28B0D3A
:100C9000883068F08091F20282FF09C082E00E94F1
:100CA0003F0B8091F9018770DD24D3948111D12C01
:100CB000C12EC2948FE0C8228C2D90E08C3091051B
:100CC00008F0CBC1FC01EA5AFF4F0C946D27812F2D
:100CD000807F1F70882311F01295107F0023B9F0D8
:100CE000112309F4A8C180E28B0D883010F0911017
:100CF00006C080916802182B1093680205C080918D
:100D00001A02182B10931A020E94EA0A94C18B2D22
:100D10000E943B24112309F4A0C180E28B0D88308E
:100D200080F1992071F1109580911A021823109387
:100D30001A022AC0812F807F1F70803211F0129515
:100D4000107F8B2D992021F0F1E09F16D9F147C03B
:100D50008091F20282FD1BC0002369F0112339F05B
:100D600080916802182B109368020E94EA0A80E0C2
:100D70000E94702472C180E00E943B24112309F478
:100D80006CC1812F0E94E30A0E94EA0A66C1002317
:100D900081F080911B02AA2051F021E0A21207C02D
:100DA000182B181709F459C110931B0256C1812B37
:100DB00010C0AA2021F081E0A81609F44EC10E94BB
:100DC000DD0A1FC0002341F091E09A1508F445C1E7
:100DD000812F0E94312441C1A1103FC112C00023C4
:100DE00019F0AA20A9F327C1AA2059F0893309F0E4
:100DF00031C1AFEFB7EEE3E0A150B040E040E1F722
:100E000027C1812F0E942A2428C1812F869586958B
:100E1000837019F0813061F020C1002321F08B2D07
:100E2000912F937002C080E090E00E946A1A1BC16B
:100E3000002321F08B2D912F937002C080E090E071
:100E40000E94541A10C18B2D002319F00E94E81F34
:100E500002C00E94311F0E94432005C1812F837070
:100E6000A9F50111FEC04B2D429546954770440FE0
:100E7000440F8B2D8F7090E09C01042E01C0220F37
:100E80000A94EAF7B4FE08C08FE090E001C0880F32
:100E90004A95EAF7809501C080E016951695137083
:100EA000123069F088F490911C02113019F0822BF5
:100EB000892302C0922B892B0E94F123D2C0822B5E
:100EC00090911C028927F8CF822BF6CF002319F0CE
:100ED000812F817001C08695882309F4C2C04B2DF3
:100EE000429546954770440F440F8B2D8F7090E0CC
:100EF0009C01042E01C0220F0A94EAF7B4FE08C038
:100F00008FE090E001C0880F4A95EAF7809501C014
:100F100080E0169516951370123059F078F4909180
:100F20003A02113019F0822B892309C0922B892BA8
:100F300006C0822B90913A02892701C0822B0E9421
:100F4000AE238FC01F70002339F0812F0E94E5234C
:100F50008B2D0E94312485C08B2D0E942A24812F45
:100F60000E94D8237EC08B2DF2EF9F1669F1F915F0
:100F700038F020EF921659F091EF991601F157C011
:100F8000A3EF9A1641F1B4EF9B16A9F050C00023CD
:100F900069F0A11062C01F7181E090E001C0880F6C
:100FA0001A95EAF790913A0289271FC0E1E0EA1505
:100FB00008F453C0F0CF8091F20282FD19C00023E3
:100FC00029F0812F8F7126C00023D9F3812F8F71D3
:100FD0000E94D82342C0002339F01F7181E001C074
:100FE000880F1A95EAF701C080E00E94AE2335C051
:100FF000002399F01F71812F0E94E5238091F20256
:1010000082FF07C0F8E01F9FC00111248360809316
:10101000F901812F0E94E52320C081E00E943F0B4F
:1010200021E02A15D0F482E00E943F0B16C0002375
:1010300021F0AA2031F28B2D9BCEAA2039F28933E0
:1010400049F48FEF97EEA3E081509040A040E1F784
:1010500000C000008B2D0E943B2488EF8C0D843053
:1010600010F40E94801ADD20A9F08091F90180FD22
:1010700011C0F70112828595859585950E94E5231B
:10108000C7010E9498038091F90185958595859502
:101090000E94D82385E0F701DE01119601900D92A0
:1010A0008A95E1F709811A81C8010E944523B80198
:1010B0000E94B40810C08091F901877061F0D701D7
:1010C00012968C91882339F08091F20282FF03C03E
:1010D00082E00E943F0BA596EBE00C94202680E076
:1010E00008959091F10292FF0DC0282F28712830A9
:1010F00019F4877F846006C0282F2471243011F4EE
:101100008B7F886093FF0DC0282F2871283119F438
:10111000877E846106C0282F2471243111F48B7ED0
:1011200088612091F20220FF0DC0382F38713830CD
:1011300019F4877F816006C0382F3171313011F486
:101140008E7F886021FF0DC0282F2871283119F467
:10115000877E816106C0282F2171213111F48E7E96
:10116000886194FD877E08957E30A0F4663090F407
:1011700094E5899FF001112486E0789FE00DF11D30
:101180001124E60FF11DEE0FFF1FEC50FF4F85916C
:101190009491089580E090E00895CF93DF93823892
:1011A000910569F1B0F48133910509F46FC048F4F9
:1011B0008932910509F465C08A32910509F46BC042
:1011C0008AC08533910509F457C089339105B9F078
:1011D00082C0833E910571F138F4803E9105B1F0F3
:1011E000823E910511F177C0863E9105B9F1873EA7
:1011F0009105C9F1843E910509F06DC024C020918C
:10120000F10220FD53C021FD51C065C08091F10263
:1012100080FD46C08091F20280FF48C08091F102BB
:1012200084FD50C183EE90E04FC18091F10282FFB6
:101230003AC0F4CF8091F10282FD35C08091F20274
:1012400080FD34C0EBCF8091F20281FF35C08091E8
:10125000F10284FD37C187EE90E036C18091F10242
:1012600083FF27C0F4CF8091F10283FD22C08091DB
:10127000F20281FD21C0EBCF8091F10285FD1FC0FC
:1012800021C08091F10285FD1DC019C08091F1023D
:1012900086FD1BC01DC08091F10286FD19C015C0DE
:1012A00089E390E011C182EE90E00EC180EE90E003
:1012B0000BC186EE90E008C184EE90E005C189E2A2
:1012C00090E002C185E390E0FFC08AE290E0FCC0BC
:1012D00081E390E0F9C0811531E5930708F069C01A
:1012E000811540E59407F0F09C0174E03695279550
:1012F0007A95E1F7922F9370482F437021E030E008
:1013000002C0220F331F4A95E2F73C68392B982F11
:101310009F709695969540E2949FC0011124822B70
:10132000932BD2C0883E910568F5803E910508F068
:10133000CBC0883A9105B8F4853A910548F0855AB2
:10134000E82FF0E0E85DFE4F808190E09064BCC043
:101350008130910509F4B3C008F4B4C0843091051C
:1013600008F4B0C0B1C08F3B910508F0ABC0885AFB
:10137000E82FF0E0EE0FFF1FE55DFE4F80819181C9
:101380009464A2C0811520E2920758F4811531E0DF
:10139000930708F099C08D3E910508F493C09065BD
:1013A00093C0811540E4940708F48CC09F70906A44
:1013B0008BC0811525E5920708F042C0811534E500
:1013C000930728F0982F8827846F906A7DC0811535
:1013D00043E59407B0F09C012370332741E050E0CF
:1013E00002C0440F551F2A95E2F7282F269526950F
:1013F00080E2289F90011124CA01822B932B9A68C6
:1014000063C0811522E5920728F4982F8827816F01
:10141000906A5AC09C012370332741E050E002C01B
:10142000440F551F2A95E2F7282F2695269580E22E
:10143000289F90011124CA01822B932B9C6844C0E1
:10144000EC01811539E59307A8F48115984528F03A
:101450009C2F8827806F906A37C0C11586E5D80712
:1014600088F58C2F0E9471088F7190E0982F882743
:1014700090622AC081152AE5920790F48C2F8F7014
:101480000E94710894E0D695C7959A95E1F7CF70C0
:10149000D0E0DC2FCC27D0699E01282BC90114C0D5
:1014A00090568115904270F48D2F8F710E947108B3
:1014B000282F2F71CE0199279062922B05C081E0D1
:1014C00090E002C080E090E0DF91CF91089568EE57
:1014D0007EEF80E090E00E94E22660E082E090E013
:1014E0000E94C42660E083E090E00E94C42610922F
:1014F0001C0260E084E090E00E94C42664E082E286
:1015000090E00E94C42660E085E090E00E94C4263E
:1015100060E086E090E00E94C4266FEF87E090E0F4
:101520000E94C42640E050E0BA0188E090E00E94AA
:10153000D62660E08DE090E00E94C42640E050E0B6
:10154000BA0188E190E00E94D62660E087E190E051
:101550000E94C42640E050E0BA018CE190E00E9475
:10156000D62660E070E080E290E00E94E22640E053
:1015700050E0BA0188E190E00E94D626109227023E
:10158000109228021092290210922A0284E080937D
:101590002702409127025091280260912902709100
:1015A0002A028FE090E00E94D62640E050E0BA0187
:1015B00083E190E00E94D626089580911B0281115C
:1015C00010921B0208958095909168028923809360
:1015D000680208959091680280911A02982B909366
:1015E000A10180911B028823D9F0892B8093A1014E
:1015F00080911601882331F08091F10287FF02C0AB
:101600008EE101C086E0E3EAF1E090E0815028F04D
:1016100021912223D9F39F5FF9CF91110E94DD0A16
:1016200040E250E06AEF71E081EA91E00E94BC285C
:10163000892B21F180E2E1EAF1E0AAEFB1E001902B
:101640000D928A95E1F7E091E802F091E902309776
:10165000A9F080911601882359F08091F10287FF4B
:1016600007C08091A1018093A20186E08093A1012F
:101670000280F381E02D81EA91E00995089520919F
:10168000F901809582238093F901982F977099F43E
:1016900030E0482F082E000C550B2417350759F061
:1016A0009091F20292FF07C08595859585950E94DD
:1016B000D8231092F9010895CF93C091F202C2FB92
:1016C000992790F9981791F080FBC2F9C093F20224
:1016D0006091F10284E090E00E94C4266C2F82E2C7
:1016E00090E00E94C42682E00E943F0BCF910895B3
:1016F0008091F8019091C701891719F08F5F877069
:10170000FBCF08950F931F93CF93DF938091C60172
:1017100082958F7009F05AC08091C301882309F423
:1017200055C08091F8011091C7016091C10170917D
:10173000C201C091C401D091C50191E06F3F09F091
:1017400090E0292F06E0811709F440C0209721F08E
:101750007F3F21F030E003C031E001C0322F90E044
:1017600030FD31C0089FF001099FF00D1124DF0109
:10177000A853BE4F11963C911197371324C03C914A
:10178000361321C012963C91129731111CC013964A
:101790004D915C9114974C1B5D0B4739510598F4A2
:1017A0008091C6018F7080618093C601E353FE4F24
:1017B00080818F708061808381EC91E00E9498032A
:1017C0000E94780B03C001968770BDCFDF91CF9147
:1017D0001F910F910895A1E1B0E0E1EFFBE00C94BF
:1017E00004268C0185E0F801DE011D9601900D9222
:1017F0008A95E1F7F801E2809091C1016091C20100
:101800004091C4015091C5014115510531F06F3F20
:1018100031F481E09F3F19F403C081E001C080E012
:10182000F82FF1709F2E80FD1BC1F80130812181BE
:10183000C380D48081ECA82E81E0B82EF090C30143
:10184000F601E41BF50BFF2009F4C7C08091C60127
:10185000E739F10508F092C0482F407F09F051C0E8
:10186000621311C093130FC0FE2CE1100CC08F70D7
:1018700080618093C601C5010E9498038091C601D2
:10188000F80185832AC1C114D10431F02F3F31F40E
:1018900081E03F3F19F403C081E001C080E080FD9A
:1018A00003C081E08E2502C080E090E0F82FF17047
:1018B000FF2E80FF1CC08091F8014091C70156E0C7
:1018C000841709F4E8C090E0589FF001599FF00D8B
:1018D0001124E853FE4F6181261306C06081631313
:1018E00003C06281E61203C001968770E9CFFE2C27
:1018F000EE2009F4F2C08091C60181608093C60198
:1019000049C0621306C0931304C0E11002C0F8017D
:1019100086C0C8010E94F623882351F1EE2041F1D0
:101920002091C601822F82958F7090E0029774F00B
:101930008091C1019091C20198878F831986DB86BF
:10194000CA862C87CE0107960E94980386E0F8018C
:10195000A1ECB1E001900D928A95E1F70E94820B13
:101960000AC06217C9F0C8010E94F62381111EC087
:10197000C8010E949803FF24F394AFC0482F407F12
:1019800081F781EC91E00E94980386E0F5011192C5
:101990008A95E9F7F12CA1C09313E5CFE110E3CFCD
:1019A000F8018583C8010E94980354C0EE2001F31A
:1019B0002091C601822F82958F7090E0029734F2B9
:1019C0008091C1019091C2019A8389831B82DD823B
:1019D000CC822E83CE010196B7CFE739F105D0F541
:1019E000FE2CEE2029F2621327C0931325C020910C
:1019F000C60120FD18C0822F82958F70482F50E0BD
:101A00004115510581F0F80125834F30510541F012
:101A10008F5F982F9295907F822F8F70892B85836F
:101A2000C8010E94980386E0F801A1ECB1E00190A2
:101A30000D928A95E1F751C0C8010E94F6238111E9
:101A400085CF8091C60181608093C601C8010E9444
:101A5000980343C086E0F50111928A95E9F73DC0ED
:101A6000EE2009F485CFC8010E94F623F82E8823C2
:101A700009F47ECF86E0F801A1ECB1E001900D926F
:101A80008A95E1F78091C1019091C2010E943823AB
:101A90000E94820B22C03D872E878D859E850E94E5
:101AA0003823292F22952F70223028F49F7039F087
:101AB000811105C00BC0243028F49F7049F4805E6A
:101AC000883020F0C8010E9498039F2CF92C05C093
:101AD000F8019581907F99F7F9CF8F2D6196EBE012
:101AE0000C942026A0E0B0E0E8E7FDE00C94062688
:101AF0008091180190911901892BB9F080911D02F4
:101B00008F5F80931D02811110C00E945F2190E0C1
:101B10009093190180931801892B39F40E94D621E2
:101B200081E0809317010E94DD1A0BE212E0780138
:101B3000B12CC0E087E0C82ECC0E8C2F0E9446222C
:101B40008C2D0E9446228C2F0E94A9228F73F701B0
:101B50009081891721F08083DD24D39401C0D12C9A
:101B60008C2D0E94A9228F73F7019781891719F094
:101B7000878381E001C080E0D82ABD280E949A2294
:101B8000CF5FFFEFEF1AFF0AC730A1F6C091210225
:101B9000CC23C9F10E94F71920911F023091200235
:101BA000AC01421B530B9A019093200280931F02B9
:101BB0004F3F510509F020F4452B09F4A1C002C0A4
:101BC0002FEF30E01092210210921E02E0912502C8
:101BD000F0912602AF01425F5F4F90E030E08081DC
:101BE000882341F0281718F010829C2F03C0821B15
:101BF00080833C2F3196E417F50789F73093210253
:101C000090931E027DC0BB2009F471C00E94F71999
:101C10009093200280931F02E0912502F09126020A
:101C200080912102ADE3B2E09F01225F3F4F4EE180
:101C3000E80199918E015C91591731F05081511151
:101C400003C040839C9381E031961196E217F3071D
:101C500079F780932102209196028091230290913E
:101C600024022223C9F1892B31F425982D98269836
:101C70002E9827982F98809123029091240291709A
:101C8000892B79F480912202882319F026982E98C6
:101C900002C0269A2E9A9091220281E08927809391
:101CA000220280912302909124028130984750F0C3
:101CB0001092960280913A020E94352110922402DD
:101CC0001092230280912302909124020196909316
:101CD00024028093230218C0892BB1F010922402B1
:101CE0001092230280913A020E9435210DC080E0BB
:101CF00090911E02992309F4AECF81118DCF86CF2A
:101D0000B1108ACF81E0F4CF8B2DCDB7DEB7E9E0FB
:101D10000C942226CF93DF93CDB7DEB7CC55D109F3
:101D20000FB6F894DEBF0FBECDBF85B7806885BF04
:101D300085B7806885BF84B7877F84BF0FB6F89466
:101D4000A895809160008861809360001092600087
:101D50000FBE90E080E80FB6F894809361009093F6
:101D600061000FBE8FE698E090939F0180939E01E3
:101D70000E94FB160E941A178091E20084608093F3
:101D8000E2007894809198028823A1F01091E900F4
:101D90001F709091EC00892F817090FD80E8182BC6
:101DA0001092E9008091E80083FD0E94E5131F7006
:101DB0001093E90082E084BD93E095BD9AEF97BD52
:101DC00080936E000E945F2190E0909319018093B0
:101DD00018010E949A220E94E022EBE2F2E0ADE3B9
:101DE000B2E011921D9222E0E933F207D1F78EE0C2
:101DF00090E00E948E278093250290932602FC019A
:101E00000E961192E817F907E1F789EA80938000AE
:101E100089E08093810024982C983F988AB18F7C28
:101E20008AB96E98479A8BB180638BB9769A8FE0A6
:101E300090E00E94A8266093270270932802809366
:101E4000290290932A0267703FEF639FB00111242B
:101E50007595679575956795772770938900609359
:101E6000880070938B0060938A0070938D0060935C
:101E70008C000E94D62180E090E00E94AE26883E31
:101E80009E4F11F00E94670A82E090E00E94A02617
:101E900080934B0284E090E00E94A026182F82E2FB
:101EA00090E00E94A026212F30E0382B3093F202E0
:101EB0002093F10283E090E00E94A0260E94F1238B
:101EC00080913A020E94352180913902811136C0F9
:101ED00080E090E00E94AE26883E9E4F21F00E9456
:101EE000670A0E945E1D88E090E00E94A826609329
:101EF000E1027093E2028093E3029093E4026E7F2A
:101F000071F40E945E1D88E090E00E94A826609314
:101F1000E1027093E2028093E3029093E4020E9454
:101F2000141D1092A1028091E10280FF04C060E0C4
:101F300086950E94D41E81E08093390280913A02F6
:101F40000E9435218AE091E09093E9028093E802B3
:101F5000A8E1EA2EF12CB0E4DB2E809198028530C6
:101F600009F085C0BB24B39400E112E1809198028E
:101F7000853009F065C080919802843009F43DC035
:101F80001092A10280913C02811116C0B0923C02D5
:101F90008091E102982F917090933B028E7F809305
:101FA000E102FFEF20E732E0F15020403040E1F75E
:101FB00000C000000E94DD1A1092EC020FB6F894E7
:101FC000A895E09260000FBED092600083B7817F39
:101FD000846083BF83B7816083BF7894889583B71B
:101FE0008E7F83BF0FB6F894A895809160008861BA
:101FF00080936000109260000FBE80918C02882355
:1020000009F4B4CF0E945F2190E09093190180936E
:1020100018010E949A220E94E022EDE3F2E0119260
:1020200042E0EB34F407D9F70E94720DEDE3F2E0E1
:1020300081918111ECC282E0EB34F807C9F796CFA9
:10204000109268020E9416240E94801A10923C028C
:1020500080913B02882349F08091E1028160809366
:10206000E10260E086950E94D41E0E94C71A0E9479
:10207000720D882359F08FB7F8944091ED0250917A
:10208000EE026091EF027091F0028FBFECE4F2E09B
:10209000ADE3B2E000E010E0302F2D919191922756
:1020A000A1F180E0BB24B3944B2D492351F16496F8
:1020B0008FAF649765963FAF65972B2181E009F458
:1020C00080E066968FAF66970E94F7198160782F3F
:1020D00068969FAF8EAF689764964FAD649765968C
:1020E0005FAD659766966FAD669768968FAD68979A
:1020F0000E946A20F801E45BFD4F8081B826B0821F
:102100002AC08F5FBB0C863079F60F5F1F4F0E30F1
:10211000110509F0C1CF8FEF69968FAF69976A9665
:102120008FAF6A976B961FAE6B970E94F71981600D
:10213000782F6D969FAF8EAF6D9769964FAD69976B
:102140006A965FAD6A976B966FAD6B976D968FAD24
:102150006D970E946A208091A102882309F493C0A0
:102160008091A002E091E102E695E81BE0939C02D9
:10217000823059F4F0E0E650FD4FE4910E2F10E06C
:10218000F3E8AF2EF9E1BF2E59C0863059F4F0E0E4
:10219000E950FD4FE4910E2F10E0E3E7AE2EE9E1A8
:1021A000BE2E4CC0893061F4E695F0E0EC50FD4F56
:1021B000E4910E2F10E078EDA72E7CE1B72E3EC003
:1021C0008F3061F4E695F0E0EF50FD4FE4910E2F73
:1021D00010E062E7A62E6CE1B62E30C0853159F4CE
:1021E000F0E0E251FD4FE4910E2F10E052E2A52EF7
:1021F0005CE1B52E23C08831A1F0833249F4ECEEC6
:10220000F2E00591149149E3A42E49E1B42E16C0E1
:10221000843271F404EF11E03FE6A32E3BE1B32ECC
:102220000DC008E210E027EAA22E2BE1B22E06C074
:1022300000ED17E098EDA92E98E1B92E80919D024E
:10224000882361F010929D020E94F71990939B02DF
:1022500080939A0210929F0210929E020E94F71998
:10226000E0919A02F0919B028E1B9F0B8F3F9F473C
:1022700050F40E0F1F1F10939B0200939A028AE9DD
:1022800092E0F501099585E0EDEFF2E0DE011196AF
:1022900001900D928A95E1F71092FE021092FF02D2
:1022A00010920003109201031A81111104C08B8156
:1022B000882309F452C08091FB029091FC020E9495
:1022C000E8199C019091F702992309F4B8C12531CE
:1022D000310508F442C09F3F19F09F5F9093F702C9
:1022E000112361F00E94C81F111614F09FEF01C066
:1022F00091E0899F802D11248093FE021B81112380
:1023000061F00E94C81F111614F09FEF01C091E008
:10231000899F802D11248093FF023091FE02332388
:10232000E1F02091FF022223C1F045EB3403C0010C
:102330001124992319F09093FE0203C081E0809349
:10234000FE0235EB2303C0011124992319F0909369
:10235000FF0203C081E08093FF021C81111104C0C1
:102360008D81882309F452C08091F9029091FA027C
:102370000E94E8199C019091F602992309F463C127
:102380002531310508F442C09F3F19F09F5F9093BB
:10239000F602112361F00E94A81F111614F09FEF9E
:1023A00001C091E0899F802D1124809300031D813D
:1023B000112361F00E94A81F111614F09FEF01C0B5
:1023C00091E0899F802D11248093010330910003B7
:1023D0003323E1F0209101032223C1F045EB3403C4
:1023E000C0011124992319F09093000303C081E0E8
:1023F0008093000335EB2303C0011124992319F0C6
:102400009093010303C081E08093010345E050E015
:10241000BE016F5F7F4F8DEF92E00E94BC28892B39
:10242000A9F48091FE0281110FC08091FF028111F9
:102430000BC080910003811107C081E090910103DE
:10244000911103C080E001C081E080FD0E94432023
:1024500085E0FE013196ADEFB2E001900D928A95D4
:10246000E1F70E94801A90915A02891380935A02D0
:1024700080919802843009F070CD8093E9008091BA
:10248000E80082FF6ACD8091E80085FF22C00E94AB
:102490004C1881111CC000E210E05E0141E2A40E64
:1024A000B11C08C08091F100F50181935F010150DA
:1024B000110969F08091E80085FDF4CF8091E80072
:1024C0008B778093E8000E944C18882399F391E061
:1024D00001C090E08091E8008B778093E800992319
:1024E00009F43BCD89A18130E9F158F1823021F026
:1024F000843009F480C031CD8BA19AA190935B0206
:1025000080935C028DA19CA190935D0280935E02FA
:102510008FA19EA190935F028093600242E150E000
:1025200063E270E0CE018F5B9F4F0E94902684E0B3
:10253000898381E0809397028EEF8A8310929602BE
:102540000CC019828CE0E9E5F1E0DE011296019001
:102550000D928A95E1F78EEF8D87CE0101960E944C
:10256000A918FBCC01E612E087E6A82E82E0B82E7F
:102570000E948D1AF801819391938F01AE16BF06C8
:10258000B9F781E08983909161029A839091620208
:102590009B83909163029C83909164029D839091B0
:1025A00065029E83909166029F839EEF9887809339
:1025B0009602CE0101960E94A91842E150E063E222
:1025C00070E0CE0101960E949026FE01319682E1D4
:1025D00083301CF09189928B01C0128A815031970F
:1025E0008F3FB1F742E150E063E270E0CE01019627
:1025F0000E94B426B2CC80919702882309F4ADCC16
:1026000080E00E94AE238AA10E94E523A6CC09BDEA
:1026100019BD09B400FEFDCF8091D8008F7D809355
:10262000D8008091E00082608093E0008091E0001B
:1026300081FDFCCF109268020E94162497CC232BB8
:1026400009F04BCE8ACE2139314008F09FCEDECE44
:1026500080918E0287FF11C08091E80082FD05C045
:10266000809198028111F8CF11C08091E8008B779A
:102670000BC080919802882349F08091E80080FF88
:10268000F8CF8091E8008E778093E8000895982F26
:10269000973068F59093E900981739F07091EC0045
:1026A0002091ED005091F00003C0242F762F50E0D0
:1026B00021FD02C09F5FECCF3091EB003E7F309355
:1026C000EB003091ED003D7F3093ED003091EB0059
:1026D00031603093EB007093EC002093ED00509349
:1026E000F0002091EE0027FDE5CF80E008958F7087
:1026F0008093E90081E00895209194023091950241
:102700002617370748F06115710539F42091E80064
:102710002E772093E80001C0B901FC0120E061158B
:10272000710579F1809198028823F1F18530F1F1FA
:102730008091E80083FD3CC08091E80082FD2EC0BE
:102740008091E80080FFEBCF2091F3008091F200B0
:1027500090E0922B6115710551F08830910538F4A5
:1027600021912093F100615071090196F3CF21E08E
:10277000089709F020E08091E8008E778093E800C8
:10278000CECF2111CFCF0AC080919802882361F06B
:10279000853061F08091E80083FD0AC08091E800F7
:1027A00082FFF2CF80E0089582E0089583E00895EB
:1027B00081E008950895BC0184E00E94971908956E
:1027C000BC0183E00E9497190895AAE2B0E0EBEE05
:1027D000F3E10C940C26EEE8F2E086E992E0209119
:1027E000F10021938E179F07D1F780918F028330DC
:1027F00009F463C030F4813071F0823009F49FC075
:10280000B6C08A3009F48BC08B3009F46EC08930B1
:1028100009F0ADC020C080918E02813A09F0A7C0B6
:102820008091E800877F8093E800809192029091E8
:102830009302892B21F460E28BE692E003C060E012
:1028400080E090E070E00E947C138091E8008B773C
:102850008093E8008CC080918E02813209F087C09D
:102860008091920290919302009719F0039709F0DA
:102870007EC08091E800877F8093E8008091E80027
:1028800082FD05C0809198028111F8CF70C020911F
:10289000F3008091F20090E0922B029731F4809146
:1028A000F100813011F0863021F48091F1008093A5
:1028B0006A028091E8008B7756C080918E02813A3F
:1028C00009F055C08091920290919302892B09F0F2
:1028D0004EC08091E800877F8093E8008091E800F7
:1028E00080FFFCCF8091160139C080918E02813229
:1028F000F1F58091920290919302892BC1F580911C
:10290000E800877F8093E8000E942813809190025E
:1029100080931601109268020E94162428C08091AC
:102920008E02813221F58091E800877F8093E80054
:102930000E942813809191028093690218C08091AF
:102940008E02813AA1F48091E800877F8093E800AD
:102950008091E80080FFFCCF809169028093F100B4
:102960008091E8008E778093E8000E942813809180
:10297000E80083FFE4C180918E0290918F02492F7D
:1029800050E04A30510508F0DAC1FA01EE59FF4F24
:102990000C946D27803821F0823809F0D0C108C02E
:1029A00080918B0290918C02992389F082600FC0F4
:1029B000809192028F70873008F0C1C18093E90046
:1029C0008091EB0085FB882780F91092E9009091B7
:1029D000E800977F9093E8008093F1001092F10057
:1029E00070C1282F2D7F09F0AAC1882319F08230E9
:1029F00061F0A5C180919002813009F0A0C19330AF
:102A000009F080E080938C022EC0809190028111A9
:102A10002AC0809192028F702FEF280F263008F085
:102A20008EC18093E9002091EB0020FF1CC0933001
:102A300021F48091EB00806214C09091EB009061D2
:102A40009093EB0021E030E0A90102C0440F551F34
:102A50008A95E2F74093EA001092EA008091EB0039
:102A600088608093EB001092E9008091E800877FF6
:102A70008093E8000E94281362C1811160C1109107
:102A800090021F778091E3008078812B8093E30090
:102A90008091E800877F8093E8000E94281380914E
:102AA000E80080FFFCCF8091E30080688093E30022
:102AB000111102C082E001C083E0809398023FC1FF
:102AC0008058823008F03BC12091900230919102F1
:102AD0002C3D53E0350779F583E08A838AE28983C8
:102AE0004FB7F894DE01139620E03EE051E2E32F69
:102AF000F0E050935700E49120FF03C0E295EF709F
:102B00003F5FEF708E2F90E0EA3010F0C79601C063
:102B1000C0968D939D932F5F243149F74FBF8091CD
:102B2000E800877F8093E8006AE270E0CE010196BA
:102B30000E947C13B4C08091920290919302432F23
:102B4000552743305105A9F068F44130510509F487
:102B500005C14230510509F0F2C084E790E0E4E19C
:102B6000F4E04BC04132510529F14232510589F15F
:102B7000E6C0C901992781309105A1F058F002976C
:102B800009F0DDC0EAE9F4E0E4918E2F90E0EAE993
:102B9000F4E030C0E8EEF4E0E4918E2F90E0E8EE4F
:102BA000F4E028C0EEEBF4E0E4918E2F90E0EEEB41
:102BB000F4E020C08430910508F0C1C0880F991F4F
:102BC000FC01EF58FE4F0190F081E02D89E090E08C
:102BD00014C08430910508F0B2C0FC01EE0FFF1F55
:102BE000E759FE4F0190F081E02DDC01AB59BE4F5B
:102BF0008C9190E0009709F4A2C02091E800277F13
:102C00002093E8002091940230919502281739070B
:102C100008F4C90140E0009789F12091980222232D
:102C200009F43DC02530D9F12091E80023FD37C0DB
:102C30002091E80022FD2FC02091E80020FFEBCF7B
:102C40004091F3002091F20030E0342B009759F0CE
:102C50002830310540F444914093F10031960197BA
:102C60002F5F3F4FF3CF41E02830310509F040E0BE
:102C70002091E8002E772093E800CDCF4111CDCFF1
:102C80000AC080919802882351F0853041F08091EC
:102C9000E80083FD04C08091E80082FFF2CF8091BC
:102CA000E8008B778093E8004AC0803809F047C07D
:102CB0008091E800877F8093E80080918D02809367
:102CC000F1008091E8008E77D3CE811138C08091D9
:102CD000900290919102992702978CF58091E800DB
:102CE000877F8093E8001091900210938D020E94DC
:102CF0002813111106C08091E30087FD02C081E016
:102D000001C084E08093980242E061EC81E00E947F
:102D1000471342E061EC82E00E94471342E261EC1B
:102D200085E00E94471342E261EC83E00E94471372
:102D300042E260EC84E00E94471380919802809107
:102D4000E80083FF10C08091E800877F8093E8004F
:102D50008091EB0080628093EB0005C082E190E0FF
:102D6000E8E8F4E04ACFAA96E3E00C9428261F9204
:102D70000F920FB60F9211242F933F934F935F93AF
:102D80006F937F938F939F93AF93BF93CF93DF9373
:102D9000EF93FF93C091E900CF708091EC00D82FA2
:102DA000D17080FDD0E81092E9008091F000877F1B
:102DB0008093F00078940E94E5131092E9008091CE
:102DC000F00088608093F000CD2BCF70C093E900B5
:102DD000FF91EF91DF91CF91BF91AF919F918F9133
:102DE0007F916F915F914F913F912F910F900FBE07
:102DF0000F901F901895E8EDF0E080818E7F808322
:102E00001092E2001092DA001092E100A0EEB0E021
:102E10008C9181608C9380818F77808319BCA7ED22
:102E2000B0E08C918E7F8C9380818F7E8083109216
:102E300067020895A0E0B0E0E0E2F7E10C94072615
:102E4000C8EDD0E088818F7E8883E7EDF0E0808157
:102E50008160808384E082BF81E080936702888103
:102E60008E7F888302EE10E0F80110821092DA0063
:102E700081EEC82ED12CF601108288818F7788834D
:102E800088818068888388818F7D888319BC1092AF
:102E9000980210928D0210928C0210928B0290EE8A
:102EA000E92EF12CF70180818B7F808388818160FE
:102EB000888342E060E080E00E944713F601808151
:102EC0008E7F8083F801808181608083808188602B
:102ED0008083F70180818E7F8083888180618883F1
:102EE000CDB7DEB7E8E00C9423261F920F920FB601
:102EF0000F9211242F933F934F935F936F937F9380
:102F00008F939F93AF93BF93EF93FF938091E100D3
:102F100082FF09C08091E20082FF05C08091E1003C
:102F20008B7F8093E1008091DA0080FF2AC080913E
:102F3000D80080FF26C08091DA008E7F8093DA006F
:102F40008091D90080FF18C080E189BD82E189BDF0
:102F500009B400FEFDCF81E0809398028091670262
:102F600081110FC00E94FB160E941A178091E20087
:102F700084608093E20005C019BC10929802109200
:102F800067028091E10080FF17C08091E20080FF1E
:102F900013C08091E2008E7F8093E2008091E20076
:102FA00080618093E2008091D80080628093D80095
:102FB00019BC85E0809398028091E10084FF30C0C5
:102FC0008091E20084FF2CC080E189BD82E189BD4F
:102FD00009B400FEFDCF8091D8008F7D8093D8008A
:102FE0008091E1008F7E8093E1008091E2008F7EEE
:102FF0008093E2008091E20081608093E200809102
:103000008D02882311F084E007C08091E30087FDE2
:1030100002C081E001C083E0809398028091980211
:103020008091E10083FF27C08091E20083FF23C0ED
:103030008091E100877F8093E10082E08093980295
:1030400010928D028091E1008E7F8093E10080914B
:10305000E2008E7F8093E2008091E20080618093A5
:10306000E20042E060E080E00E9447138091F000BF
:1030700088608093F000FF91EF91BF91AF919F9195
:103080008F917F916F915F914F913F912F910F9011
:103090000FBE0F901F9018952091E4003091E5002D
:1030A00095E64091EC00842F817040FF23C0809111
:1030B000E80080FD1DC080919802882399F085303A
:1030C00099F08091EB0085FD11C04091E400509192
:1030D000E5002417350729F3915011F09A01E1CF4B
:1030E00084E0089582E0089583E0089581E00895E2
:1030F00080E008954091E80042FFDDCF0895EF920F
:10310000FF920F931F93CF93DF937C018B010E945B
:103110004C18811119C0E70101151105A1F080912A
:10312000E80085FD0AC08091E8008E778093E80072
:103130000E944C18882381F307C089918093F10085
:1031400001501109E9CF80E0CDB7DEB7E6E00C947D
:103150002526CF9320919802243029F5C091E900CB
:10316000CF703091EC00232F217030FD20E8C22B6E
:1031700023E02093E9002091E80020FF11C040E007
:1031800050E060E270E00E947F18882321F01092E6
:103190009602109297028091E8008E778093E80063
:1031A000CF70C093E900CF91089580916A0208958D
:1031B000089522E02093E9002FEF3091E80021509C
:1031C00035FD06C035ED3A95F1F700002111F5CF38
:1031D0002091E80025FF0BC040E050E065E070E082
:1031E0000E947F188091E8008E778093E800089510
:1031F000CF93DF9320911601222339F02091F10221
:1032000027FF03C060E225E002C068E021E02093D0
:10321000E9002FEF3091E800215035FD06C035ED73
:103220003A95F1F700002111F5CF2091E80025FF34
:103230001DC0EC0180911601811105C040E050E0F5
:1032400068E070E003C070E040E050E0CE010E9412
:103250007F188091E8008E778093E80080E2FE017D
:10326000ABE6B2E001900D928A95E1F7DF91CF9144
:103270000895A4E0B0E0EFE3F9E10C940B268C0193
:103280008091A40281110AC09E012F5F3F4F4FEF32
:103290006FEF0E946E1D8A818093A402F8018481E1
:1032A000813051F028F0823061F44091A4020AC0CC
:1032B0008091A40240E007C06091A40240E080E059
:1032C00003C040E080E060E00E94021DF8018481BC
:1032D00090E0019663E070E00E9459278483249671
:1032E000E4E00C942726CF93DF93EC01E1EEF2E0CB
:1032F000438162818C810E94FB1D8C818F5F8C8356
:10330000DF91CF910895CF93DF93EC01EC81F0E052
:10331000E451FB4F4491E1EEF2E0628181810E9431
:10332000FB1D8C818F5F8C83DF91CF9108958093FB
:10333000F3027093F5026093F40280919802843056
:1033400001F585E08093E9008FEF9091E8008150CE
:1033500095FD06C095ED9A95F1F700008111F5CF26
:103360008091E80085FF0DC040E050E063E070E030
:1033700083EF92E00E947F188091E8008E7780931F
:10338000E800089578941F920F920FB60F921124BF
:103390008F939F93AF93BF938091ED029091EE0234
:1033A000A091EF02B091F0020196A11DB11D809392
:1033B000ED029093EE02A093EF02B093F002BF9162
:1033C000AF919F918F910F900FBE0F901F90189506
:1033D0009C014FB7F8948091ED029091EE02A0917C
:1033E000EF02B091F0024FBF821B930B08952FB7ED
:1033F000F8948091ED029091EE02A091EF02B091CD
:10340000F0022FBF08951F920F920FB60F92112452
:103410008F939F93AF93BF938091EC02811113C060
:103420008091ED029091EE02A091EF02B091F00236
:103430004196A11DB11D8093ED029093EE02A093E1
:10344000EF02B093F002BF91AF919F918F910F90D7
:103450000FBE0F901F901895209116012223C9F0DE
:103460002091F10227FF15C0262F26952695269537
:103470002E31C8F4FC01E20FF11D677081E090E08D
:1034800001C0880F6A95EAF780959281892382832B
:103490000895FC0106962281621301C012823196C2
:1034A000E817F907C1F708952091EA023091EB027D
:1034B0002817390771F09093EB028093EA02E091AC
:1034C000E802F091E902309721F00084F185E02DC7
:1034D000099508952091E6023091E70228173907EF
:1034E00071F09093E7028093E602E091E802F09198
:1034F000E902309721F00680F781E02D09950895C3
:10350000E091E802F091E902309729F00190F08112
:10351000E02D0995089580E00895CF93DF930E94F0
:10352000802666E070E00E945927D82F0E948026EE
:103530006EE070E00E945927C82F6D2F782F80E031
:103540000E94B4080497C59718F48D2F9C2F02C0D1
:103550000E948D1ADF91CF9108959091E10290FF22
:1035600004C09695981748F003C0811106C090E0FA
:10357000961718F40E94261F08950E940F1F0895A1
:10358000882311F0FA0101C0FB01099508956091AB
:10359000E102669570E04BE050E08AE191E00E9424
:1035A000AF28892B19F481E08093A1020E94F719BA
:1035B00090939B0280939A020895EF92FF920F934B
:1035C0001F93CF93DF938091E10280FF08C005EA4B
:1035D00012E081EEE82E82E0F82EF8011BC0E5EA49
:1035E000F2E081EE92E01182108212821382349610
:1035F0008E179F07C1F7EBCF381708F4832F83830B
:10360000381B3183281B2083981B92833496EE1637
:10361000FF0641F0928120813181892F291760F7BF
:10362000822FEACF80919902882381F1809118013D
:1036300090911901892B51F580911701882331F15F
:1036400065E070E084E80E941B25892B19F0109238
:1036500017011AC0C5EAD2E065E070E088810E94D7
:10366000902565E070E089810E94902565E070E01A
:103670008A810E94902565E070E08B810E949025F0
:103680002496EC16FD0641F70E94E525579A8BB16A
:103690008F779BB190682FB7F894E016F10699F0F8
:1036A000F80131918F0148E09BB9000000C037FF5D
:1036B0008BB9330F000000C000C000C08BB900C040
:1036C0004A9591F7EACF2FBF8FE594E00197F1F784
:1036D00000C00000CDB7DEB7E6E00C942526EF92DF
:1036E000FF920F931F93CF93DF938C01C5EAD2E033
:1036F000E12CF12CF8018481F7E0EF16F1041CF4C1
:10370000882339F002C0811104C09E014091E40277
:1037100002C09E0140E06091E3028091E2020E94BB
:103720006E1D8FEFE81AF80A24969FE0E916F1045F
:1037300009F70E94DD1AF801848190E001968170FA
:1037400099278483CDB7DEB7E6E00C942526A0E068
:10375000B0E0EDEAFBE10C940326EC014C81042F70
:1037600010E09801D8010E943C279B01AC010E9407
:1037700007276B017C01E0E2F0E0E01BF10BA5E51F
:10378000B0E09B01AC010E9407274B015C019F0147
:10379000DF010E9473279B01AC010E9412279B014D
:1037A000AC012C0D3D1D4E1D5F1DC501B4010E94D5
:1037B0001A27822FF22E99E2921728F093E0299F80
:1037C000900111240DC025E530E0281B3109C90105
:1037D000880F991F280F391F37FF02C02F5F3F4FF7
:1037E00035952795122F109595EAC92E92E0D92E7E
:1037F00000E085E5E82EEF1801FD02C08E2D01C026
:103800008F2D9601412F6091E3020E946E1D0F5F84
:1038100084E0C80ED11C0F3079F70E94DD1A8C812C
:10382000811102C091E003C0803219F49FEF9093A0
:10383000270190912701890F8C83CDB7DEB7ECE08B
:103840000C941F260F931F93CF93DF93C5EAD2E00A
:10385000FE011182108212821382349682E0E13ED0
:10386000F807B9F700E010E08091A302082E000CE1
:10387000990B0817190794F080912601082E000C67
:10388000990B8017910754F09E014091E4026091DA
:10389000E3028091E2020E946E1D04C01982188228
:1038A0001A821B820F5F1F4F24960F301105E1F61D
:1038B0000E94DD1A809125019091A302980F9093A8
:1038C000A30220912601280F20932601121614F43A
:1038D0009E301CF0819580932501DF91CF911F913F
:1038E0000F910895A0E0B0E0E8E7FCE10C94062613
:1038F000FC01828180FF03C0DD24DA9402C0DD2454
:10390000D39405EA12E0C0E0D0E02FE0B22EF80137
:10391000118210821282138294E0E92EF12CC12CC4
:103920008091A2028C0D80312CF06B2D0E944B27D0
:10393000892F02C087FD815F082E000C990BC817E4
:10394000D90791F48091E4028E9DA0018F9D500DC6
:103950001124559547955595479598016091E30237
:103960008091E2020E946E1DCD0CF1E0EF1AF10889
:10397000B9F621960C5F1F4FCF30D10541F60E945A
:10398000DD1A8091A20291E0D91206C0811102C015
:103990008EE007C0815005C090E00196BE010E94F4
:1039A00059278093A202CDB7DEB7E9E00C94222616
:1039B000EF92FF921F93CF93DF93EC0185EAE82EFD
:1039C00082E0F82E10E08C8197014091E402609132
:1039D000E302810F0E946E1D1F5E84E0E80EF11C61
:1039E0001F3F89F70E94DD1A9A818C8190FF02C0E7
:1039F0008F5F01C081508C83DF91CF911F91FF9029
:103A0000EF9008959091E10290FF0DC0E5EAF2E099
:103A10008183608342831382349692E0E13EF9070A
:103A2000B9F70E94DD1A08958091E102282F2695AA
:103A300030E02115310519F48170826005C025320E
:103A4000310524F0817088648093E1020895CF925B
:103A5000DF92EF92FF926B017C010E94141DB7016F
:103A6000A60188E090E00E94D626FF90EF90DF90BC
:103A7000CF9008958091E502882319F081508093BA
:103A8000E5026091E1027091E2028091E30290917F
:103A9000E4020E94271D08958091E502833018F406
:103AA0008F5F8093E5026091E1027091E202809164
:103AB000E3029091E4020E94271D0895E1EEF2E0F6
:103AC00083E0808311828FEF8283838314826081FD
:103AD0007181828193810E94271D0895A0E0B0E04A
:103AE000E4E7FDE10C940526E82EF62EE901E42F2B
:103AF000F0E0611106C0E451FA4FE4914E2F2E2FF1
:103B000071C0062F10E0E451FA4F4491F42FC42EF7
:103B1000D12C26E0829FC00111242FEF30E0B901A3
:103B20000E94E9255BEA5603C001579F900D1124BE
:103B30008E0D911D8E0D911D582F550F580FD901C7
:103B4000A01BB10BAC9DC001AD9D900DBC9D900D17
:103B50001124E92FF59ED0011124AB2FBB27790149
:103B6000EA1AFB0AEC9CD001ED9CB00DFC9CB00D58
:103B700011245901A51AB108A09E7001A19EF00C54
:103B8000B09EF00C1124EF2CFF242E193F092C9D20
:103B900080012D9D100D3C9D100D1124212F6230B0
:103BA000710591F048F461157105E1F0613071051E
:103BB000B9F4242F4B2F16C06430710569F040F022
:103BC0006630710579F00CC0242F492FE12F0AC00F
:103BD000492FEF2F2B2F06C0292FE42F412F02C092
:103BE000292FEB2F49832883EA831B82CDB7DEB7C9
:103BF000EAE00C942126A4E0B0E0E1E0FEE10C94C0
:103C00000D269091E10290FF0AC09E012F5F3F4F69
:103C10000E946E1D4B8169818A810E94021D24963B
:103C2000E2E00C942926A4E0B0E0E9E1FEE10C9486
:103C30000026F82E762EE42E622E9091E10290FF5F
:103C400067C0E92FE695AE2FB0E0A758BE4F8C9124
:103C50008093A0029E7F923061F49E012F5F3F4FC0
:103C60008F2D0E946E1D4B8169818A810E94021DE9
:103C70003DC0823019F4E090E40238C0863019F477
:103C8000F090E20233C08930D9F3893179F5E951F6
:103C90008E2F8170582EE695F0E0E451F94FE491B3
:103CA0000E2F10E085EAC82E82E0D82EA12CB12C70
:103CB0009FE0892E912CC501B4010E94E9258F2D2A
:103CC000511002C0860F01C0861B96014E2D672D34
:103CD0000E946E1DA00EB11E84E0C80ED11C81EEA4
:103CE000C81682E0D80639F70E94DD1AF092E20287
:103CF0007092E302E092E402662051F06091E102EA
:103D00007091E2028091E3029091E4020E94271DEB
:103D10002496EFE00C941C26E1EEF2E043812CE0C7
:103D2000421B08F440E021E0628181810E94131E61
:103D30000895E1EEF2E043812CE0420F08F44FEFEA
:103D400021E0628181810E94131E0895E1EEF2E07C
:103D500062812FEF621B08F460E021E043818181E2
:103D60000E94131E0895E1EEF2E062812FEF620FD0
:103D700008F46FEF21E0438181810E94131E0895B2
:103D8000E1EEF2E0818121E0438162818C500E946A
:103D9000131E0895E1EEF2E0818121E0438162810A
:103DA000845F0E94131E08959091E10290FF36C037
:103DB0009170811102C0926006C0853210F0986443
:103DC00002C0880F982B9093E102662351F0609116
:103DD000E1027091E2028091E3029091E4020E947C
:103DE000271D6091E102669570E04BE050E08AE1AA
:103DF00091E00E94AF28892B19F01092A10202C015
:103E00000E94C71A81E080939D0220E04091E40265
:103E10006091E3028091E2020E94131E089561E026
:103E20000E94D41E0895E1EEF2E0808181608083DB
:103E300086950E940F1F08958091E102869581501A
:103E400009F484E261E00E94D41E08958091E102A9
:103E500086958F5F853208F081E061E00E94D41E74
:103E600008958D3E39F49091FF0297FF35C010926E
:103E7000FF0259C08E3E29F49091FF021916BCF33F
:103E80002BC09091FE028F3E29F497FF25C010921F
:103E9000FE0249C0803F19F41916CCF31DC0909161
:103EA0000003893F29F41916BCF4109200033BC0AB
:103EB0008A3F19F497FF10C0F8CF8B3F39F49091E7
:103EC000010397FF09C0109201032DC08C3F21F41C
:103ED000909101031916BCF39FE0980F983080F47D
:103EE00021E030E0A90102C0440F551F9A95E2F786
:103EF000CA0180959091FD0289238093FD0213C031
:103F00008D3F21F48091F8028E7F0BC08E3F21F40B
:103F10008091F8028D7F05C08F3F29F48091F802CF
:103F20008B7F8093F8028091FE02811106C0809100
:103F3000FF02811102C01092F702809100038111EB
:103F400006C080910103811102C01092F60208950B
:103F50008091F80280FD18C081FD14C082FD16C05A
:103F60008091F602882381F08E3180F427E0829FD1
:103F7000C00111246EE170E00E945927862F672B43
:103F800019F005C083E0089581E0089587E0089561
:103F90008091F80280FD14C081FD14C082FD16C01E
:103FA0008091F702882381F08E3180F428E3829F8C
:103FB000C00111246EE170E00E945927862F0895F8
:103FC0008EE008958CE1089588E0089588E30895CF
:103FD0008D3E21F40E94C81F819504C08E3E29F4B5
:103FE0000E94C81F8093FF0208958F3E21F40E9413
:103FF000C81F819504C0803F29F40E94C81F809388
:10400000FE020895893F19F40E94A81F05C08A3F47
:1040100031F40E94A81F81958093000308958B3F7F
:1040200021F40E94A81F819504C08C3F29F40E94AE
:10403000A81F8093010308959FE0980F983078F4AB
:1040400021E030E0A90102C0440F551F9A95E2F724
:10405000CA019091FD02892B8093FD0208958D3F46
:1040600021F48091F80281600BC08E3F21F4809191
:10407000F802826005C08F3F29F48091F8028460C5
:104080008093F80208950E94F7192091FE022111F1
:1040900004C02091FF02222321F09093FC02809320
:1040A000FB0220910003211104C02091010322236F
:1040B00021F09093FA028093F902E091E802F091E6
:1040C000E902309731F00480F581E02D8DEF92E028
:1040D00009950895A7E1B0E0E0E7F0E20C940C2622
:1040E0004B8B5C8B6D8B7E8B8F8B611110921A02C8
:1040F00086E09E01235F3F4FD901E82F1D92EA958C
:10410000E9F795E0FE017396D90101900D929A9519
:10411000E1F79C894E895F897B897D879E876F87C0
:10412000598B488BF901DE01179601900D928A9503
:10413000E1F7CE0107960E94EB0B81113EC086E0AD
:10414000FE013796DE01119601900D928A95E1F7F6
:10415000FF81E8856A857B856115710531F0EF3F48
:1041600031F481E0FF3F19F403C081E001C080E039
:1041700080FD23C02091C70130E0C90101968770FE
:1041800099274091F80150E08417950779F1F98358
:10419000EA837D836C8396E0929FD001939FB00D5C
:1041A0001124A853BE4FFE01319601900D929A95AD
:1041B000E1F78093C7010E94780B16E08091F80127
:1041C0009091C701891709F1189FC00111248853E4
:1041D0009E4F0E94EB0B8823C1F08091F80190E084
:1041E0000196877099278093F801E8CF10926802B2
:1041F0000E9416241092C7011092F801E1ECF1E040
:1042000086E0DF011D928A95E9F76796E3E00C945A
:104210002826982F92959F7019F0892F24E001C0CD
:1042200020E0982F9695969511F02E5F892F982F64
:10423000969509F02F5F822F0895109268020E94D0
:1042400016242FEF84E39CE0215080409040E1F75A
:1042500000C000009AE088E10FB6F894A89580931A
:1042600060000FBE90936000FFCFCF93C82F0E94D5
:10427000092156985E9825982D9826982E9827986B
:104280002F9890E0FC013197E730F105A8F4E4594C
:10429000FF4F0C946D27259A2D9A0EC0259A2D9AC2
:1042A000269A2E9A09C0259A2D9A04C0259A2D9AED
:1042B000269A2E9A279A2F9A8C2FCF91089580E2D2
:1042C00090E09093190180931801809199028111D7
:1042D0000EC00E94152581E0809399022FEF83ED97
:1042E00090E3215080409040E1F700C0000060E57D
:1042F00070E080E40E941B259093190180931801BF
:10430000892B09F04EC060E570E080E00E949025A6
:104310009093190180931801892B09F042C060E540
:1043200070E080E00E94902590931901809318011D
:10433000892BB9F560E570E08FE30E94902590939A
:10434000190180931801892B61F50E94E52560E52C
:1043500070E080E40E941B2590931901809318015E
:10436000892BF9F460E570E08CE00E949025909331
:10437000190180931801892BA1F460E570E080E0B9
:104380000E9490259093190180931801892B49F47C
:1043900060E570E08FE30E9490259093190180936F
:1043A00018010E94E525809118010895CF93DF93AD
:1043B00056985E9825982D9826982E9827982F988D
:1043C000C8E8D0E08FEF90E099838883AAE8B0E056
:1043D00011969C938E93ECE8F0E091838083259A6C
:1043E0002D9A2FEF80E792E0215080409040E1F736
:1043F00000C00000269A2E9A2FEF80E792E021500D
:1044000080409040E1F700C00000279A2F9A2FEFDC
:1044100080E792E0215080409040E1F700C000002A
:1044200025982D982FEF80E792E021508040904012
:10443000E1F700C0000026982E982FEF80E792E069
:10444000215080409040E1F700C0000027982F984D
:104450008091270287702FEF829FC00111249595CC
:1044600087959595879599279983888311969C932D
:104470008E939183808356985E9825982D982698E0
:104480002E9827982F98DF91CF910895CF93E82FFA
:10449000873080F58091180190911901892B09F0DE
:1044A00047C0CE2F60E570E080E40E941B2590930A
:1044B000190180931801892BD1F460E570E082E145
:1044C0000E9490259093190180931801892B79F40B
:1044D00081E090E001C0880FCA95EAF760E570E0DE
:1044E00080950E94902590931901809318010E9455
:1044F000E5251EC090E0FC013797E730F105C0F4D8
:10450000ED58FF4F0C946D27209A289811C0219ADE
:1045100029980EC0229A2A980BC0239A2B9808C07B
:10452000529A5A9805C0539A5B9802C03E9A469890
:10453000CF910895209828982198299822982A9810
:1045400023982B9852985A9853985B983E9846987F
:104550000895CF93873040F580911801909119010B
:10456000892B59F560E570E081E40E941B2590934A
:10457000190180931801892B11F0C0E011C080E56A
:1045800090E00E94C02597FF05C090931901809389
:104590001801F3CFC82FC09510921901109218017D
:1045A0000E94E5258C2F0AC09FB18FB1807F869530
:1045B00086959370892B809501C080E0CF910895F6
:1045C0008098889A8198899A84988C9A85988D9AEF
:1045D00086988E9A87988F9A089580E090E00E943E
:1045E0006A1A80E090E00E94541A10921A020E9407
:1045F000EA0AEDEFF2E085E0DF011D928A95E9F726
:104600001092F7021092F6021092F8020E944320D4
:104610000895CF92DF92FF920F931F93CF93DF9372
:104620006C0100913A0280911C02082BC7E0D0E097
:1046300010E0C8010C2E02C0959587950A94E2F708
:1046400080FD04C02197A8F7F12C09C0FC2EB6010B
:104650008C2F0E94B4080E94CD08019799F38F2DEA
:10466000DF91CF911F910F91FF90DF90CF90089530
:10467000CF93DF93EC010E940923BE010E94B4088E
:104680000E94CD08DF91CF910895292F9E3078F5B3
:10469000863068F590E036E0239F800D911D11244F
:1046A000682F677023E0969587952A95E1F7FC01BE
:1046B000EE0FFF1FE80FF91FEE5FFC4F40E050E0E8
:1046C00080E0219130E0062E02C0369527950A94AD
:1046D000E2F721703327042E01C0220F0A94EAF773
:1046E000822B4F5F5F4F4330510559F7089580E0AB
:1046F0000895292F9E3088F5863078F590E036E0D1
:10470000239F800D911D1124282F277051E001C097
:10471000550F2A95EAF723E0969587952A95E1F7B4
:10472000FC01EE0FFF1FE80FF91FEE5FFC4F20E0CA
:1047300030E070E04081CB01022E02C09695879553
:104740000A94E2F7817081958427852384278193D9
:104750002F5F3F4F2330310569F70895A0E2B0E0A5
:10476000E4EBF3E20C940C260E943521182F809183
:1047700097028823A9F02FEF80E792E02150804034
:104780009040E1F700C0000085E08983812F0E94FE
:1047900009218A838EEF8B83CE0101960E94A9188E
:1047A00010933A020E94ED22A096E3E00C94282692
:1047B00021E030E001C0220F8A95EAF72095809130
:1047C0003A0282230E94AE23089521E030E001C026
:1047D000220F8A95EAF780913A02822B0E94AE233B
:1047E000089580931C020E94ED220895FC018081AF
:1047F00091810E94382392959F70963079F010F441
:10480000925001C09A50923068F4803F69F018F4D9
:10481000883E40F409C0843F29F406C0883E20F059
:10482000813F11F080E0089581E0089580911601A4
:10483000882331F08091F10287FF02C08EE101C030
:1048400086E0E3EAF1E0DF011D928A95E9F70E9434
:10485000ED220895882321F00E94E30A0E94EA0ACB
:104860000895882339F090916802892B809368021B
:104870000E94EA0A0895882391F19CEF980F913ADB
:1048800030F4682F81EA91E00E942C1A0DC090E26A
:10489000980F983060F4877091E001C0990F8A9565
:1048A000EAF7892F0E94E30A0E94EA0A08959BE52D
:1048B000980F933028F480E090E00E946A1A0895DF
:1048C00098E5980F973128F480E090E00E94541A00
:1048D00008958D3E20F00E94311F0E9443200895CC
:1048E000CF93882309F49FC0C82F8CEF8C0F813A97
:1048F00008F05BC0809116018823E1F08091F102FD
:1049000087FF18C0EC2FE695E695E695F0E0EF55A9
:10491000FE4F8281282F30E04C2F477081E090E0DD
:1049200002C0880F991F4A95E2F782239323892BAF
:1049300059F411C0E3EAF1E08191C81729F081E050
:10494000E93AF807C9F707C06C2F81EA91E00E94A5
:104950002C1A0E94EA0A809116018823B1F08091F6
:10496000F10287FF12C0EC2FE695E695E695F0E0A0
:10497000EF55FE4FC77081E090E001C0880FCA95E7
:10498000EAF79281892B828320C0A3EAB1E0EFEF9E
:1049900080E09D91C917C9F0EF3F19F4911101C052
:1049A000E82F8F5F8630A9F735C080E28C0F883002
:1049B00078F4C77081E090E001C0880FCA95EAF7EB
:1049C00090916802892B809368020E94EA0A2BC0AA
:1049D000EBE5EC0FE33040F4F0E0E85DFE4F808162
:1049E00090E00E946A1A1FC0E8E5EC0FE73150F42E
:1049F000F0E0EE0FFF1FE55DFE4F808191810E9488
:104A0000541A11C0CD3E78F08C2F0E94E81F0E94EE
:104A1000432009C0EF3FC9F20E2E000CFF0BEF55EB
:104A2000FE4FC283D2CFCF9108951092B9008CE08F
:104A30008093B8000895A0E0B0E0E1E2F5E20C94C4
:104A40000426B82EEB010E94F7196C01C431D10580
:104A500058F0CF3F8FEFD80759F0CE0164E170E0F6
:104A60000E94E9257B0107C0EE24E394F12C03C0EA
:104A700025E0E22EF12C84E8A82E94EA992E1092DB
:104A8000BC009092BC000E94F7198C018091BC0080
:104A900087FD08C00E94F719801B910B8E159F059A
:104AA000A8F32AC08091B900887F883041F08091B6
:104AB000B900887F803119F00FEF1FEF1FC0B0924F
:104AC000BB00A092BC000E94F7198C018091BC0031
:104AD00087FD08C00E94F719801B910B8E159F055A
:104AE000A8F30AC08091B900887F883111F0803422
:104AF00019F700E010E00EC00EEF1FEFCF3F8FEF71
:104B0000D80709F4BCCFC6010E94E8198C179D078D
:104B100008F4B5CFC801CDB7DEB7EBE00C94202682
:104B20000F931F93CF93DF93EB018093BB0084E837
:104B30008093BC000E94F7198C018091BC0087FD16
:104B40000EC0CF3F8FEFD807C1F30E94F719801B2B
:104B5000910B8C179D0788F38EEF9FEF0CC020916F
:104B6000B900287F81E090E0283211F480E090E0E5
:104B7000919581959109DF91CF911F910F910895A2
:104B80000F931F93CF93DF93EC0184E88093BC00D5
:104B90000E94F7198C018091BC0087FD0EC0CF3FA9
:104BA0008FEFD807C1F30E94F719801B910B8C1768
:104BB0009D0788F38EEF9FEF03C08091BB0090E0CC
:104BC000DF91CF911F910F91089584E98093BC00EC
:104BD0000895AA1BBB1B51E107C0AA1FBB1FA61744
:104BE000B70710F0A61BB70B881F991F5A95A9F796
:104BF00080959095BC01CD0108952F923F924F92E0
:104C00005F926F927F928F929F92AF92BF92CF925C
:104C1000DF92EF92FF920F931F93CF93DF93CDB765
:104C2000DEB7CA1BDB0B0FB6F894DEBF0FBECDBFDD
:104C300009942A88398848885F846E847D848C84AE
:104C40009B84AA84B984C884DF80EE80FD800C81B7
:104C50001B81AA81B981CE0FD11D0FB6F894DEBF9A
:104C60000FBECDBFED0108958F929F92AF92BF927C
:104C7000CF92DF92EF92FF92CF93DF93EC016881A6
:104C800079818A819B81611571058105910521F4E6
:104C900064E279ED8BE597E02DE133EF41E050E000
:104CA0000E94E82649015A019B01AC01A7EAB1E440
:104CB0000E9407276B017C01ACEEB4EFA5019401C3
:104CC0000E941527DC01CB018C0D9D1DAE1DBF1D63
:104CD000B7FF03C00197A109B04888839983AA83CD
:104CE000BB839F77DF91CF91FF90EF90DF90CF90C4
:104CF000BF90AF909F908F9008950E9434260895A2
:104D000080E091E00E9434260895A0E0B0E0809316
:104D1000000190930101A0930201B0930301089553
:104D2000DC01CB01FC01F999FECF06C0F2BDE1BD6B
:104D3000F89A319600B40D9241505040B8F708955A
:104D4000F999FECF92BD81BDF89A992780B5089553
:104D5000A6E1B0E044E050E00C949226A8E1B0E077
:104D600042E050E00C949226DC01A40FB51F4150A4
:104D7000504048F0CB01840F951F2E910E94C5260C
:104D800041505040D0F70895262FF999FECF92BD9B
:104D900081BDF89A019700B4021639F01FBA20BD00
:104DA0000FB6F894FA9AF99A0FBE08950396272F32
:104DB0000E94C5260E94C426252F0E94C526242FA6
:104DC0000C94C5260196272F0E94C5260C94C42654
:104DD000052E97FB1EF400940E94FF2657FD07D076
:104DE0000E941A2707FC03D04EF40C94FF2650951E
:104DF0004095309521953F4F4F4F5F4F08959095C7
:104E00008095709561957F4F8F4F9F4F08950E94B9
:104E10003C27A59F900DB49F900DA49F800D911DE0
:104E200011240895B7FF0C9407270E940727821BBF
:104E3000930B0895A1E21A2EAA1BBB1BFD010DC006
:104E4000AA1FBB1FEE1FFF1FA217B307E407F5073A
:104E500020F0A21BB30BE40BF50B661F771F881F16
:104E6000991F1A9469F760957095809590959B01AC
:104E7000AC01BD01CF010895A29FB001B39FC00155
:104E8000A39F700D811D1124911DB29F700D811D76
:104E90001124911D089587FB082E062687FD819514
:104EA00067FD61950E9482270EF4919507FC81951C
:104EB000089597FB072E16F4009407D077FD09D0CC
:104EC0000E94E92507FC05D03EF4909581959F4FFF
:104ED0000895709561957F4F0895EE0FFF1F05901F
:104EE000F491E02D09940E943C27332312F48A1B8D
:104EF0009B0B0C947D270E943C27B7FF0895821BD3
:104F0000930B0895991B79E004C0991F961708F038
:104F1000961B881F7A95C9F7809508950F931F9364
:104F2000CF93DF938230910510F482E090E0E0911E
:104F30002503F091260320E030E0A0E0B0E03097B8
:104F400019F1408151810281138148175907C8F036
:104F50008417950769F4109731F012960C93129705
:104F600013961C9327C0009325031093260322C099
:104F70002115310519F04217530718F49A01BD01A4
:104F8000EF01DF01F801DBCF21153105F9F0281B16
:104F9000390B2430310580F48A819B8161157105BC
:104FA00021F0FB019383828304C0909326038093B6
:104FB0002503FE01329644C0FE01E20FF31F8193E8
:104FC000919322503109398328833AC020912303D9
:104FD00030912403232B41F42091060130910701E5
:104FE0003093240320932303209104013091050181
:104FF0002115310541F42DB73EB74091080150917C
:105000000901241B350BE0912303F0912403E217DF
:10501000F307A0F42E1B3F0B2817390778F0AC01DB
:105020004E5F5F4F2417350748F04E0F5F1F5093B8
:105030002403409323038193919302C0E0E0F0E0C6
:10504000CF01DF91CF911F910F910895CF93DF93FF
:10505000009709F481C0FC01329713821282A0915B
:105060002503B0912603109781F420813181820FAE
:10507000931F20912303309124032817390751F5FA
:10508000F0932403E093230367C0ED0120E030E0B8
:10509000CE17DF0740F44A815B819E01411551051F
:1050A000F1F0EA01F5CFD383C28340815181840FAF
:1050B000951FC817D90759F488819981840F951FC6
:1050C0000296918380838A819B81938382832115B9
:1050D000310529F4F0932603E09325033DC0E9014F
:1050E000FB83EA8349915991C40FD51FEC17FD0743
:1050F00061F480819181840F951F0296E901998363
:105100008883828193819B838A83E0E0F0E012961A
:105110008D919C911397009719F0FD01DC01F7CF59
:105120008D919C9111979D012E5F3F4F820F931F90
:1051300020912303309124032817390769F430970D
:1051400029F4109226031092250302C013821282C2
:10515000B0932403A0932303DF91CF910895FC0122
:105160004150504030F001900616D1F73197CF01F1
:105170000895882799270895FB01DC0104C08D91CB
:105180000190801921F441505040C8F7881B990BB9
:065190000895F894FFCF22
:1051960001000000000027032000D518F818D918D0
:1051A600E013DB13DA130101200001191A1B1C1D81
:1051B6001E1F202122010201818283E200E900EA0A
:1051C60000B500B600B700CD008301CC008A01927D
:1051D6000194012102230224022502260227022A23
:1051E60002B300B4006F00700041307239302F36C0
:1051F60062475252004022476DD403B2036B03FE4E
:105206000226043F045F047804000102020202063B
:1052160006060909090909090F0F0F0F0F0F1515C2
:0E52260015181919191919191919191923240C
:00000001FF
